:020000040800F2
:100000006009002001410008B3110008B511000883
:10001000B9110008BD110008C1110008000000005E
:10002000000000000000000000000000C5110008F2
:10003000C711000800000000C9110008E110000805
:100040001B4100081B4100081B4100081B41000820
:100050001B4100081B4100081B4100081B41000810
:100060001B4100084B110008651100087F110008B2
:100070001B410008391100081B4100081B41000802
:100080001B4100081B41000800000000F51000089B
:100090001B4100081B4100081B4100081B410008D0
:1000A0001B4100081B4100081B4100081B410008C0
:1000B0001B410008000000001B4100080000000078
:1000C0001B410008000000001B4100081B41000804
:1000D0001B4100081B4100081B41000800000000F4
:1000E00000000000000000001B4100081B41000848
:1000F0001B4100081B4100081B4100081B41000870
:100100001B41000800000000000000001B41000827
:1001100000000000000000000000000000000000DF
:1001200000000000000000000000000000000000CF
:1001300000000000000000000000000000000000BF
:1001400000000000000000000000000000000000AF
:1001500000000000000000001B4100081B410008D7
:100160001B4100081B41000800F002F800F03AF8BB
:100170000AA090E8000C82448344AAF10107DA4502
:1001800001D100F02FF8AFF2090EBAE80F0013F01A
:10019000010F18BFFB1A43F0010318474C4400003D
:1001A0006C440000103A24BF78C878C1FAD85207CE
:1001B00024BF30C830C144BF04680C6070470000E1
:1001C0000023002400250026103A28BF78C1FBD860
:1001D000520728BF30C148BF0B6070471FB51FBD15
:1001E00010B510BD04F0D7F81146FFF7F7FF00F087
:1001F0005DF804F0F5F803B4FFF7F2FF03BC04F078
:10020000FDF80000002400207949087001F084FF07
:10021000002000F01CF90020764908700120764982
:100220000870002000F0FEF801F06EF800BF05E055
:1002300072490C700A2000F0B2FF641C082CF7DB36
:1002400000206E4908706E4803F032FC0022042141
:100250006C4802F055F801E001F05EFFFCE710B5D4
:100260000446B4F5004F01D1012000E00020024611
:100270004FF400414FF0904002F042F8B4F5805F37
:1002800001D1012000E0002002464FF480514FF0E0
:10029000904002F035F8082C01D1012000E0002048
:1002A00002460821574802F02BF810BD03F0BCFFAE
:1002B000554800686422B0FBF2F1481EB0F1807F1F
:1002C00000D31BE0481E4FF0E022506150170F2270
:1002D000002804DB13071C0E4C4B1C5406E01307CC
:1002E0001D0E4B4B00F00F04241F1D5500BF0020B6
:1002F0004FF0E02290610720106100BF00F0F4FA97
:1003000008B900BFFEE700F0E9FA00F008FB00F0D2
:100310002EFB012204213B4801F0F2FF00F0FCFD1E
:1003200000F089FD00F0C5FC01F0F6FE00F05BFE78
:10033000072032490870642000F031FF01F0ECFE24
:1003400000202E49087001E001F0E6FE4FF4004164
:10035000304801F0DCFF0028F6D148E0264800785C
:1003600028B94FF400412B4801F0D1FF08B1FFF745
:1003700049FF2948008848F6B801884204DD4FF457
:100380000040FFF76CFF22E02348008848F2E801B4
:1003900088420ADD2048008848F6B801884204DA1D
:1003A0004FF48050FFF75BFF11E01B48008847F6D1
:1003B0001811884209DD1848008848F2E80188428F
:1003C00003DA0820FFF74BFF01E0FFF71BFF13489C
:1003D00001680068401C114A10601148814201D92F
:1003E000FFF710FF052000F0DAFE01F095FEB5E7FB
:1003F0002E000020660000205E0000202D0000205E
:1004000000440040000400486800002000E400E0D0
:1004100018ED00E0000800480A0000200400002059
:1004200080380100FE49087070470121FD4A1170B3
:10043000B0F57A7F02DD4FF47A7105E010F57A7F2E
:1004400001DAF94900E00146F84A11807047B0F539
:100450007A7F02DD4FF47A7105E010F57A7F01DAD8
:10046000F14900E00146F24A1180704700B50346A9
:100470000020EC490870ED4908801846FFF7E7FFB7
:1004800000BDEC48B0F900007047EB48B0F900003F
:1004900040F6E851884203D10020E84908800DE089
:1004A000E548B0F9000048F6103191FBF0F0E4495E
:1004B00091F90010484300B2E0490880DF48B0F9E4
:1004C000000070472DE9FF41002003900290019049
:1004D000DC480088401CDB490880DB48007830B3EA
:1004E0000846008841F2883190FBF1F1D748007846
:1004F000401C91FBF0F200FB1210C0B9D1480088FB
:10050000D149097890FBF1F201FB1200A8B9D0485B
:10051000007808B9012000E00020CD4908700846A5
:1005200002784FF48061CB4801F0EAFE05E000223A
:100530004FF48061C74801F0E3FEC748B0F90000FE
:10054000B0F57A7F13DAC4480088401C00B2C24973
:100550000880C2494988C24AB2F90020881800EBD5
:10056000D071491009B2BE4A1180BDE8FF81B5487B
:100570000088642190FBF1F201FB1200002849D1B0
:10058000B648008845F66A6148434FF47A71B0FB7B
:10059000F1F080B20646B1494988B14AB2F900206B
:1005A000891AB04A01FB02F003F070FF07460022EF
:1005B000134603F083FF09D2A8484088A849B1F93F
:1005C0000010401AA7494843404207E0A34840882A
:1005D000A349B1F90010401AA24948434FF47A7177
:1005E00090FBF1F085B2A0480088301A642190FB9E
:1005F000F1F09D49098808449B4908809B48008880
:10060000281A642190FBF1F0984909880844974919
:10061000088000BF9548008843F69821884206DC90
:100620007F48007818B192480078012803D191489A
:1006300002F021FD02E08F4802F018FD4FF4006146
:10064000844801F064FE8C49087002218B4801F057
:100650005EFE8B4908704FF480418A4801F057FED6
:1006600089490870844800788549097800EB410180
:100670008548007801EB8000844908708448097837
:10068000405C8449087008460078834909788842AC
:100690001CD08248B0F900008149088000207F49C1
:1006A00008807C4800787C490978401A44B2012CC3
:1006B00001D0601D18B9FF206149087006E0601C78
:1006C00008B1052C02D101205D4908707548006809
:1006D000A0EBE0107249B1F90010084471490860BC
:1006E00008460068C01100B2534908804D480078A0
:1006F00080B14E48008851490988401A00B26A49C1
:100700000880098801EB4101484A1288114408B267
:10071000FFF79DFE65480068A0EB20304449B1F921
:10072000001008446149086008460068001300B2E0
:100730004049088001A802AB03AA009055480178FF
:100740003C48B0F9000003F060FE019800F26540FB
:10075000B0F50C6F02DD4FF40C6009E0019800F277
:1007600065400A2801DA0A2002E0019800F265409B
:10077000024602213F4802F0BEFD029800F26540A9
:10078000B0F50C6F02DD4FF40C6009E0029800F246
:1007900065400A2801DA0A2002E0029800F265406A
:1007A00002460121334802F0A6FD039800F265409D
:1007B000B0F50C6F02DD4FF40C6009E0039800F215
:1007C00065400A2801DA0A2002E0039800F2654039
:1007D00002460021274802F08EFD3048B0F90000A3
:1007E00040F6E851884206DA2C480088401C00B2E6
:1007F0002A49088006E040F6E85029490880002090
:100800000E49088024480078012856D021480078F5
:10081000012852D126480068094991F9001049E0A1
:100820001C0000202000002018FCFFFF1E000020FC
:100830001A000020440000203C0000200E00002090
:1008400018000020300000202D0000202E00002085
:100850002C0000200004004832000020220000206C
:10086000340000201C1303000A0000200C000020AC
:1008700050000020002C01402600002000140048F9
:100880002700002000080048280000202900002040
:10089000E04500082A0000202B0000201400002062
:1008A0001600002038000020080000204000002032
:1008B00010000020084406490860064800780649F0
:1008C000087000BF51E6002801DA414208B27047C3
:1008D000100000202A0000202B00002010B54FF44B
:1008E000407001F069FD10BD10B540F61D1001F01B
:1008F00065FF08B101F071FF022140F6FF7001F0C1
:1009000030FC012805D140F6FF7001F00FFC0128F2
:1009100001D0002010BD01F004FC0120FAE710B561
:100920004FF4E16001F012FEFE4802F02BFA0020C5
:10093000FD49888008802020488048F6A0408860D3
:10094000002088818873F74802F0D3FAF649F54809
:1009500002F081FA00221146132001F032FD01213C
:10096000F04802F01DFBEF4802F0B4FA10BD10B5DC
:1009700040F2115001F0EAFD40F2125001F0E6FDA4
:1009800040F2135001F0E2FD40F2165001F0DEFD9E
:100990004FF40043002201214FF0904001F064FC2D
:1009A0004FF40043012200214FF0904001F083FCFE
:1009B000082300220121DD4801F056FC0823012212
:1009C0000021DA4801F077FC4FF480530022012126
:1009D0004FF0904001F048FC4FF480530122002179
:1009E0004FF0904001F067FC0223002201214FF0FC
:1009F000904001F039FC0223012200214FF0904089
:100A000001F059FC0123002219464FF0904001F0FB
:100A10002BFC01231A4600214FF0904001F04BFCC3
:100A20004FF4005300220121C14801F01DFC4FF496
:100A3000005303220021BE4801F03DFC4FF4006347
:100A400000221146B94801F00FFC02230022114692
:100A5000B84801F009FC4FF4804300221146B44825
:100A600001F002FC0423012202214FF0904001F02A
:100A7000FBFB0823012202214FF0904001F0F4FB20
:100A80000423032200214FF0904001F014FC0823BE
:100A9000032200214FF0904001F00DFC04220121BF
:100AA0004FF0904001F04BFC082201214FF09040A4
:100AB00001F045FC1023002203214FF0904001F08B
:100AC000D3FB4023002203214FF0904001F0CCFBE8
:100AD0004023002203214FF0904001F0C5FB012389
:100AE00000220321914801F0BFFB102300220121C5
:100AF0008E4801F0B9FB1023032200218B4801F03E
:100B0000DAFB4FF4805300220221884801F0ACFB4D
:100B10004FF480520221854801F011FC4FF48063AC
:100B2000002202214FF0904001F09EFB4FF4007331
:100B3000002202214FF0904001F096FB4FF48073A9
:100B4000002202214FF0904001F08EFB4FF4004351
:100B500000220221754801F087FB4FF480430022F8
:100B60000221724801F080FB4FF400530022022161
:100B70006E4801F079FB4FF48063002211464FF07C
:100B8000904001F098FB4FF40073002211464FF0A3
:100B9000904001F090FB4FF48073002211464FF01B
:100BA000904001F088FB4FF40043002211465F485B
:100BB00001F081FB4FF48043002211465B4801F0B5
:100BC0007AFB4FF4005300221146584801F073FBA2
:100BD0004FF4806202214FF0904001F0B0FB4FF4DF
:100BE000007202214FF0904001F0A9FB4FF4807297
:100BF00002214FF0904001F0A2FB4FF4004202218D
:100C00004A4801F09CFB4FF480420221474801F022
:100C100096FB4FF400520221444801F090FB04235C
:100C200000220121414801F01FFB04230122002181
:100C30003E4801F040FB4023012202213B4801F0E5
:100C400013FB802301220221384801F00DFB4023D1
:100C500003220021354801F02EFB802303220021CE
:100C6000324801F028FB40220021304801F067FBA8
:100C7000802200212D4801F062FB4FF480630022A6
:100C800001212A4801F0F0FA4FF480630322002189
:100C9000264801F010FB4FF400430022114624487F
:100CA00001F0E2FA01231A460021224801F0DCFAA1
:100CB00010BD10B540F20B6001F048FC1E4802F078
:100CC00061F800201D49888008802020488040F677
:100CD000CA008860002088818873174802F009F9EB
:100CE0001649154802F0B7F800220221124802F016
:100CF00042FB00220121104802F03DFB0022114678
:100D00000D4802F038FB002202210B4802F006FBDE
:100D100000220121084802F001FB0022114606488A
:100D20000EE00000002000406C000020000400489D
:100D30000008004800140048002C01407C000020FE
:100D400002F0ECFA70220221DA4802F0A7FA7022CF
:100D50000121D84802F0A2FA70220021D54802F001
:100D60009DFA00220221D34802F0C5FA0022012197
:100D7000D04802F0C0FA00221146CE4802F0BBFA79
:100D80000020CD4988800820C880002008814FF4C9
:100D9000007048810A460221C64802F093F9C64A0B
:100DA0000121C44802F08EF9C34A0021C14802F073
:100DB00089F94FF40060C1490880002048804881CB
:100DC0003C2088804FF4805088810020C8804FF4F8
:100DD00080400881B74802F031F9B64802F07FF848
:100DE00001220221B34802F07EFB01221146B148E4
:100DF00002F079FB01220021AE4802F074FB0422CC
:100E00000221AC4802F09DFB04220121A94802F016
:100E100098FB04220021A74802F093FB0022114610
:100E20000D2001F0CEFA0121A24802F0B9F8A14844
:100E300002F050F810BD00B587B040F2096001F033
:100E400085FB4FF4A06001F081FB032001F011FC51
:100E500000220121092001F0B4FA002000F0FEFE7A
:100E60000020974988619748C860002048614FF486
:100E7000806008610220C861934808600120886092
:100E8000000248604FF44050086218220C31684656
:100E900003F04CFA8A480EC8002000F00BFF002037
:100EA00000F08FFF002000F0B9FF0221002001F0C8
:100EB000F9F80221002000F0ECFF002000F0BDFF57
:100EC0000221012000F069FC02220421002000F030
:100ED00090FC02220621012000F08BFC002000F093
:100EE0004DFC0121084600F04FFD4FF46021012028
:100EF00000F076FD00F0BDFB00F0C9FB00F099FEAC
:100F000000F074FB00F085FB00F09EFB012108025D
:100F100000F0F3FB07B000BD00B587B040F21170E0
:100F200001F014FB4FF4A06001F010FB4FF4E1312D
:100F3000664802F0DAFD0021644802F012FE00214A
:100F4000624802F01AFE0021604802F022FE0021F1
:100F50005E4802F0A4FE08215C4802F030FE042145
:100F60005A4802F034FE594802F01FFE00220221C6
:100F70000B2001F026FA042000F070FE00205449F6
:100F800088615448C8600020486108610120C86138
:100F90004E482430086001208860002048604FF4EB
:100FA0004050086218220C31684603F0BFF94848E7
:100FB0000EC8042000F07EFE042000F002FF042092
:100FC00000F02CFF4021414803F004F802210420E6
:100FD00001F068F80121042000F05BFF042000F01C
:100FE0002CFF07B000BD00B587B040F20E6001F0E5
:100FF000ADFA4FF4A06001F0A9FA4FF496413648DB
:1010000002F073FD0021344802F0ABFD00213248AC
:1010100002F0B3FD0021304802F0BBFD00212E4854
:1010200002F03DFE08212C4802F0C9FD04212A48A7
:1010300002F0CDFD284802F0B8FD002202210A206E
:1010400001F0BFF9022000F009FE0020204988616C
:101050002248C8600020486108610120C8611E481C
:101060002430086001208860002048604FF4405020
:10107000086218220C31684603F058F914480EC86B
:10108000022000F017FE022000F09BFE022000F07C
:10109000C5FE4021104802F09DFF0221084601F0E4
:1010A00001F80121022000F0F4FE022000F0C5FE4C
:1010B00007B000BD002C01409A0000208C000020E9
:1010C000CC000020220000204C24014000440040BD
:1010D000A800002046000020003801404700002002
:1010E0003A480068401C3949086070470020384978
:1010F0000860704710B5FFF7C8F9354800683549F2
:10110000B1F90010B0EB410F09D93348007810B99C
:101110000020FFF7ABF901202F49087007E00020FD
:101120002D4908702A480068401C2949086001219F
:101130002A4801F04DFF10BD10B5012000F06EFCF3
:101140000121274801F044FF10BD10B5FFF7BAF99F
:101150000221002000F03BFF18B10221002000F026
:1011600098FF10BD10B50221084600F030FF28B1ED
:1011700000F09DF80221084600F08BFF10BD10B56D
:101180000221042000F023FF28B100F0D2F902214F
:10119000042000F07EFF10BD0C48006870470B4A29
:1011A000116800E000BF094A1268521A8242F9D35E
:1011B0007047704700BFFEE700BFFEE700BFFEE7D5
:1011C00000BFFEE7704770477047000048000020EE
:1011D0004C00002060000020500000200020004053
:1011E000002C01402DE9F04107460D46164600242B
:1011F0000DE0295D384602F0F2FC00BF40F20671B6
:10120000384602F021FF0028F8D0601CC4B2B44276
:10121000EFDBBDE8F08130B50246002016E012F8A1
:10122000015B80EA0520082300BF00F400442CB1D4
:1012300041F2210484EA4004A0B203E04FF6FF74B7
:1012400004EA40005C1EE4B2231EEED14C1E211EB7
:10125000E5DA30BD38B500242F222046641C0DF895
:1012600000200A222046641C0DF800202246694610
:101270002048FFF7B7FF38BD70B5044620782F2807
:1012800002D1E0790A2800D070BD05212046FFF781
:10129000C2FF05466079B0EB152F03D1A079E9B202
:1012A000884200D0F0E7FFF721FF00BFECE710B560
:1012B000114804782F2C05D1002010490870012016
:1012C0000F4908700E48007898B10E480B4909780C
:1012D00044540A480078401C0849087008460078C1
:1012E000082806DB00200870054908700548FFF74C
:1012F000C3FF10BD00380140470000205A00002005
:1013000051000020520000202DE9FF410124002659
:10131000A148007808B1012000E0002007462F20F6
:101320008DF8000001208DF801009C48007800072E
:10133000000E8DF8020001208DF803009848007817
:101340008DF804008DF8057095480078082850D273
:10135000DFE800F04F040F222D38424D032491485E
:101360000088000A8DF806008E4800788DF8070086
:1013700040E005248C48006800EBC0008500280E82
:101380008DF80600280C8DF80700280A8DF8080053
:10139000E8B28DF809002DE003248448008800128B
:1013A0008DF80600814800788DF8070022E00324BC
:1013B0007F48008800128DF806007D4800788DF87F
:1013C000070017E00224FFF75CF80A2190FBF1F018
:1013D000C0B28DF806000DE00324764800880012A4
:1013E0008DF80600734800788DF8070002E00124AC
:1013F00000E000BF00BF8DF80140611D6846FFF7A7
:101400000AFF0646310A601D0DF80010F1B2A01D5A
:101410000DF800100A21E01D0DF80010401CC2B2AA
:1014200069466548FFF7DEFEBDE8FF8170B50446FA
:10143000667820782F2803D1F01D205C0A2800D080
:1014400070BD711D2046FFF7E6FE0546701D205C4D
:10145000B0EB152F04D1B01D205CE9B2884200D05A
:10146000EEE7A07800F00F0054490870A07800095A
:101470004A490870E0785249087020794849087054
:101480004F480078072827D006DC02280BD0032815
:101490000FD0042845D112E0082824D0092826D0EE
:1014A000FF283ED133E0012046490870FEF7BAFF1D
:1014B00038E0002043490870FEF7B4FF32E0012015
:1014C00040490870FEF7AEFF617949B201EB810136
:1014D0004800FEF7CBFF25E0A079617900EB012001
:1014E000344908801EE000202F4908601AE00020DF
:1014F0002D490860012033490870FEF793FF617998
:1015000049B201EB81014800FEF78FFF0AE000209D
:10151000FEF7ACFF01202049087007202049087021
:1015200000E000BF00BFFFF7EFFEFFF7DFFD00BFE9
:1015300086E770B5244804782F2C05D10020234974
:1015400008700120224908702148007810B3214812
:101550001E49097844541D480078401C1B490870F6
:1015600008460078012815DD1A484578052D04DD68
:1015700000200870164908700CE014480178E81D36
:10158000814207DD00201149087011490870114897
:10159000FFF74CFF70BD00005E00002063000020DC
:1015A000650000200E000020100000200A0000202E
:1015B0000C00002060000020004400406200002079
:1015C0006400002066000020460000205D0000202E
:1015D0005C000020F000002010B540F2093000F05F
:1015E000EDFF40F2093000F0F7FF10BDFA48006847
:1015F00000F0010028B9F848006840F00100F64901
:1016000008607047F448006820F00100F249086063
:101610007047F148006840F00800EF49086000BFDB
:10162000ED48006800F008000028F9D1EA48006899
:1016300040F00400E849086000BFE748006800F097
:1016400004000028F9D17047E348006840F4807036
:10165000E14908607047E048006820F48070DE4986
:1016600008607047DC48006840F40000DA49086010
:101670007047D948006820F40000D74908607047D7
:10168000D548006840F08070D34908607047D24860
:10169000006820F08070D04908607047CE4A121F61
:1016A000126822F4C052CC4B1B1F1A60012802D0D2
:1016B00002281FD115E0C84A121F126822F46042A6
:1016C000C54B1B1F1A601A4613684A1E43EA423272
:1016D000C14B1B1F1A601A46126842F400621A605E
:1016E00009E0BD4A121F126842F48052BA4B1B1F18
:1016F0001A6000E000BF00BF7047F9B100F48072CB
:101700003AB1B54A121F126842F48072B24B1B1FE5
:101710001A6000F480623AB1AF4A121F126842F4B4
:101720008062AD4B1B1F1A6000F002022AB3AA4A66
:10173000126842F00202A84B1A601EE000F48072A8
:101740003AB1A54A121F126822F48072A24B1B1FE5
:101750001A6000F480623AB19F4A121F126822F4A4
:1017600080629D4B1B1F1A6000F002022AB19A4A48
:10177000126822F00202984B1A60704730B1964905
:10178000096841F40061944A116005E092490968D2
:1017900021F40061904A11607047012802D00228AC
:1017A00024D111E08C4A243213684A1E23EA0252E3
:1017B000894B24331A601A4613684A1E43EA0252C0
:1017C000854B24331A6012E0834A303213684A1E74
:1017D00023EA0252804B30331A601A4613684A1EBD
:1017E00043EA02527C4B30331A6000E000BF00BF76
:1017F000704770B51446122900D10021062810D276
:10180000754D2C352A6800EB80061F25B540AA438C
:1018100000EB800501FA05F52A436F4D2C352A604F
:101820002AE00C2812D26C4D28352A68851F05EB5A
:1018300085061F25B540AA43851F05EB850501FADE
:1018400005F52A43644D28352A6015E0102813D287
:10185000614D24352A68A0F10C0505EB85061F258E
:10186000B540AA43A0F10C0505EB850501FA05F585
:101870002A43594D24352A600A2910D2564D08357D
:101880002B6801EB41060725B540AB4301EB410551
:1018900004FA05F52B43504D08352B6015E012294D
:1018A00013D24D4D2D1D2B68A1F10A0505EB450600
:1018B0000725B540AB43A1F10A0505EB450504FA40
:1018C00005F52B43444D2D1D2B6070BDF0B503462F
:1018D000414E30363668C6F30155052B15D23E4EC3
:1018E00030363468EE1A06EB8606C6F10F071F265F
:1018F000BE40B443EE1A06EB8606C6F10F0601FAA7
:1019000006F63443344E303634600A2910D2324E53
:101910000836306801EB41070726BE40B04301EBB3
:10192000410602FA06F630432B4E0836306015E0C9
:10193000132913D2284E361D3068A1F10A0606EB92
:1019400046070726BE40B043A1F10A0606EB46064D
:1019500002FA06F63043204E361D3060F0BD30B539
:10196000024600201C4C30342468C4F301539C1AF6
:10197000C4F10300032806D88000C1F30B04174DFF
:101980000544C5F8144430BD91B100F001022AB1FC
:10199000114A126842F480120F4B1A6000F00202E2
:1019A000C2B10D4A126842F400420B4B1A6011E0BA
:1019B00000F001022AB1084A126822F48012064B94
:1019C0001A6000F002022AB1034A126822F40042AF
:1019D000014B1A60704700000824014000200140BC
:1019E000012802D0022816D10AE0994A126822F48E
:1019F0006022974B1A601A4612680A431A600BE07D
:101A0000934A126822F4E042914B1A601A46126817
:101A10000A431A6000E000BF00BF704700F00101F8
:101A200029B18B49096841F48001894A116000F0AD
:101A3000020129B18649096841F40011844A116004
:101A4000704783484430006880B27047024632B124
:101A5000012A08D0022A0AD0032A10D10BE07C48C0
:101A6000343001680DE07A483830016809E0784880
:101A70003C30016805E076484030016801E0002113
:101A800000BF00BF88B2704701460020704A083A84
:101A900012680A4002B1012070476D49083909688F
:101AA00081436B4A083A1160704702460020012AC0
:101AB00004D0022A10D0042A2AD11BE0644B083B30
:101AC0001B6803F00101624B1B1F1B6803F04003FE
:101AD0000BB101B101201CE05D4B083B1B6803F01A
:101AE00002015B4B1B1F1B6803F020030BB101B10C
:101AF00001200EE0564B083B1B6803F00401544BD9
:101B00001B1F1B6803F080030BB101B1012000E033
:101B100000BF00BF70474E490839096881434C4AED
:101B2000083A1160704700F0010139B14849091FB6
:101B3000096841F04001464A121F116000F002019D
:101B400039B14349091F096841F02001404A121F79
:101B5000116000F0040139B13D49091F096841F0E5
:101B600080013B4A121F1160704700F0010139B13A
:101B70003749091F096821F04001354A121F1160D9
:101B800000F0020139B13249091F096821F0200132
:101B90002F4A121F116000F0040139B12C49091FAE
:101BA000096821F080012A4A121F116070472849F4
:101BB000091F0968274A1140254A121F1160114662
:101BC00009680143116011460968234A1143204AFC
:101BD000121F116070471E49091F09681D4A1F32F4
:101BE00011401B4A121F1160012804D002280BD09B
:101BF00003281BD111E01649091F096841F40001AF
:101C0000134A121F116012E01149091F096841F4BB
:101C100080010F4A121F116009E00D49091F096870
:101C200041F440010A4A121F116000E000BF00BFEA
:101C300070470748001F0068064908400449091F0B
:101C400008607047024A20321060121F116070470E
:101C500008240140E0FD3FFF0002C00000EB8001CE
:101C6000FD4A02EB8101896821F0010100EB80024D
:101C7000F94B03EB82029160002100EB800203EB41
:101C80008202916000EB800203EB8202D16000EBE4
:101C9000800203EB8202116100EB800203EB8202FF
:101CA00051611946496883000F229A401143EA4A5C
:101CB000516070470FB410B500EB8003E64C04EBA5
:101CC0008303039A1A6100EB800304EB8303069AF3
:101CD0005A6100EB800304EB83030A9ADA6000EB9D
:101CE0008002234603EB8202916821F47C51079B1A
:101CF000049A1A430B9B1A43114300EB80022346BC
:101D000003EB82029160059A62B900EB800203EB5B
:101D10008202926842F0400200EB800304EB8303EE
:101D20009A600DE000EB8002CB4B03EB82029268DD
:101D300022F0400200EB8003C74C04EB83039A605F
:101D4000089A72B900EB8002C34B03EB82029268DF
:101D500042F0800200EB8003BF4C04EB83039A60E7
:101D60000DE000EB8002BC4B03EB8202926822F094
:101D7000800200EB8003B84C04EB83039A60099A5D
:101D800072B900EB8002B44B03EB8202926822F03E
:101D9000100200EB8003B04C04EB83039A600DE06B
:101DA00000EB8002AC4B03EB8202926842F010021F
:101DB00000EB8003A84C04EB83039A6010BC5DF831
:101DC00014FB00EB8001A44A02EB8101896841F019
:101DD000200100EB8002A04B03EB82029160704770
:101DE00000EB80019C4A02EB8101896821F020010F
:101DF00000EB8002984B03EB82029160704700EB8E
:101E00008001954A02EB8101896841F4804100EB31
:101E10008002914B03EB82029160704700EB8001DE
:101E20008D4A02EB8101896821F4804100EB800238
:101E3000894B03EB82029160704700EB8001864A78
:101E400002EB8101896841F0010100EB8002824BC5
:101E500003EB82029160704700EB80017E4A02EB47
:101E60008101896821F0010100EB80027A4B03EBCC
:101E700082029160704700EB8002774B03EB820295
:101E80001161704700EB8002734B03EB82025161DA
:101E9000704700EB8002704B03EB8202D160704709
:101EA000014601EB81006C4A02EB8000C06870477C
:101EB00010B50A4600EB8003674C04EB8303996876
:101EC00021F44051114300EB800304EB830399603C
:101ED00010BD10B50A4600EB80035F4C04EB830392
:101EE000996821F44061114300EB800304EB830304
:101EF000996010BD10B50A4600EB8003564C04EB08
:101F00008303996821F44071114300EB800304EBD3
:101F10008303996010BD00EB80014F4A02EB810101
:101F2000896841F0800100EB80024B4B03EB820299
:101F30009160704700EB8001474A02EB810189689C
:101F400021F0800100EB8002434B03EB82029160A1
:101F5000704700EB8001404A02EB8101896841F043
:101F6000400100EB80023C4B03EB82029160704722
:101F700000EB8001384A02EB8101896821F04001C1
:101F800000EB8002344B03EB82029160704710B586
:101F900071B900EB8002304B03EB8202926822F0B1
:101FA000100200EB80032C4C04EB83039A600DE0DD
:101FB00000EB8002284B03EB8202926842F0100291
:101FC00000EB8003244C04EB83039A6010BDF0B552
:101FD0000246002300240F250E2601293ED00229A7
:101FE00004D0042914D008294AD123E01A480068F3
:101FF000970001FA07F700EA07049000C44002EBDB
:102000008200154F07EB8000806800F0020338E083
:1020100011480068970001FA07F700EA07049000EA
:10202000C44002EB82000C4F07EB8000806800F098
:10203000040326E008480068970001FA07F700EA61
:1020400007049000C44002EB8200034F07EB8000BE
:10205000806800F0080314E0000002402B4800688C
:10206000970005FA07F700EA07049000C44002EB66
:102070008200264F07EB8000806800EA060300E03C
:1020800000BF00BF04EA030008B10120F0BD00203A
:10209000FCE71E4A5268830001FA03F31A431B4B04
:1020A0005A60704710B500EB8002184B03EB8202B8
:1020B00092680A4300EB8003144C04EB83039A609C
:1020C00010BD10B500EB8002104B03EB820292684A
:1020D0008A4300EB80030D4C04EB83039A6010BD30
:1020E00010B50246094B1B68940001FA04F4234022
:1020F0000BB1012000E0002010BD044A52688300AB
:1021000001FA03F31A43014B5A6070470000024082
:1021100000203049086070474AF6AA202D4908601F
:1021200070474CF6CC402B490860704710B501460B
:10213000294B002245F25550264C206000BF25480F
:10214000C06800F00402581E031E01D0002AF6D118
:102150000AB1002010BDC1F30B001E4C206101200C
:10216000F8E730B502460B461B4C002145F25550AE
:10217000184D286000BF1748C06800F00101601EBC
:10218000041E01D00029F6D109B1002030BD11484C
:102190004360114C00BF0F48C06800F00201601E90
:1021A000041E01D00029F6D109B10020EEE7C2F3E8
:1021B0000B00084DA8604AF6AA2028600120E5E738
:1021C00001460448C068084008B10120704700205B
:1021D000FCE7000000300040FFFF0F0010B5044690
:1021E0007349601A8C4220D006DCB4F1904F0AD0BB
:1021F00070482044A0BB0FE0B0F5806F1ED0B0F552
:10220000406F2ED123E040F6112000F0D7F940F6C0
:10221000112000F0E1F925E040F6122000F0CEF99F
:1022200040F6122000F0D8F91CE040F6132000F030
:10223000C5F940F6132000F0CFF913E040F6142062
:1022400000F0BCF940F6142000F0C6F90AE040F6B0
:10225000162000F0B3F940F6162000F0BDF901E0B9
:10226000FFE700BF00BF10BDF0B504460D4616469F
:102270002168E268002019E0012787401F409FB1D4
:102280004FEA400C032707FA0CF7B943470005FA59
:1022900007F739434FEA400C032707FA0CF7BA4314
:1022A000470006FA07F73A43471CB8B21028E3D3B1
:1022B0002160E260F0BDF0B50C461546012C03D15B
:1022C00046681E43466002E046689E434660826858
:1022D00000210DE001268E401E403EB14F00032636
:1022E000BE40B2434E0005FA06F632434E1CB1B270
:1022F0001029EFD38260F0BD816170478162704721
:102300000AB1816100E08162704741617047024615
:102310001069084008B1012070470020FCE7014621
:10232000086980B2704702465069084008B1012030
:1023300070470020FCE70146486980B27047F0B55D
:1023400003461C6A5D6A00200DE0012686401640A7
:102350003EB187000F26BE40B443860001FA06F660
:102360003443461CB0B20828EFD3082011E0012600
:10237000864016405EB1A0F10806B7000F26BE40A9
:10238000B543A0F10806B60001FA06F63543461C2F
:10239000B0B21028EBD31C625D62F0BD4FF4803206
:1023A0000A43C261C161C261C269C269704700006B
:1023B0000008004800FCFFB743490143434A11604D
:1023C0007047F0B50B460021002400253F4E3668CB
:1023D00006F4E066B6F5E06F02D100BF042526E002
:1023E0003A4E366806F4E066B6F5C06F02D10124B5
:1023F00003251CE0354E366806F4E066B6F5A06F9E
:1024000002D10224022512E0304E366806F4E0665E
:10241000B6F5806F02D10324012508E02B4E366803
:1024200006F4E066B6F5407F01D104240025C4F12E
:10243000040603FA06F1C5F104070F26FE40164014
:1024400031430901224E315400F01F070126BE40DE
:102450004711BF0007F1E027C7F80061F0BD00F0A9
:102460001F02012191401B4A431142F8231070477B
:10247000194A0A400243154B1B1F1A607047134943
:10248000091D09680143114A121D116070470F4967
:10249000091D096881430D4A121D11607047042807
:1024A00008D14FF0E021096941F004014FF0E0222A
:1024B000116107E04FF0E021096921F004014FF0BC
:1024C000E0221161704700000000FA050CED00E009
:1024D00000E400E080E100E080FFFF1FFD480068AD
:1024E00040F00100FB49086000BFFA48006800F0B6
:1024F00002000028F9D0F7484068F7490840F5493C
:10250000486008464068F5490840F2494860084676
:10251000406820F44000486008460068F0490840E0
:10252000EC4908600846C06A20F00F00C8620846FF
:10253000006B40F243118843E64908630846406B4C
:1025400020F001004863002088607047E14A02EBF8
:102550009011096800F01F0301229A401143DD4BDE
:1025600003EB901211607047DA4A02EB9011096890
:1025700000F01F0301229A409143D64B03EB9012C7
:1025800011607047D34A02EB9011096800F01F03F5
:1025900001229A401143CF4B03EB90121160704718
:1025A000CC4A02EB9011096800F01F0301229A4007
:1025B0009143C84B03EB901211607047C54A02EB80
:1025C0009011096800F01F0301229A401143C14B8A
:1025D00003EB901211607047BE4A02EB901109683C
:1025E00000F01F0301229A409143BA4B03EB901273
:1025F00011607047B748006A40F48030B5490862FE
:102600007047B448006A20F48030B24908627047CD
:1026100001460020AF4A506820F0030041EA000262
:10262000AC4B5A607047AB48406800F00C007047F4
:1026300001460020A74A506820F0F00041EA00025D
:10264000A44B5A60704701460020A24A506820F40B
:10265000E06041EA00029F4B5A607047014600204B
:102660009C4A506820F4605041EA0002994B5A603D
:1026700070479849496821F44041964A5160114693
:10268000096B21F480711163052839D2DFE800F06D
:10269000030A14202C008F49096B21F480718D4AA4
:1026A00011632EE08B4949688A4A51601146096BD3
:1026B00041F48071116324E08649496841F4804106
:1026C000844A51601146096B41F48071116318E02E
:1026D0008049496841F400417E4A51601146096BC6
:1026E00041F4807111630CE07A49496841F440413A
:1026F000784A51601146096B41F48071116300E022
:1027000000BF00BF70477349496821F44001714A16
:1027100051601146496801435160704710B500226D
:102720006C4B5A6822F0774242EA00030B43694C33
:10273000636010BD674A52686A4B1A40654B5A6025
:102740001A46526840EA01031A43624B5A607047C6
:102750006049096B21F003015E4A11631146096B60
:102760000143116370475B49096B21F04001594AED
:1027700011631146096B0143116370475549096A9A
:1027800021F44071534A11621146096A01431162F2
:10279000704700214F4AD16A21F00F0141EA00023F
:1027A0004C4BDA6270474B49096A21F01801494ADB
:1027B00011621146096A0143116270470146454A98
:1027C00002EB9110006801F01F0301229A401040B3
:1027D00008B1012070470020FCE73E48406A40F005
:1027E00080703C494862704701463A48806808401A
:1027F00008B1012070470020FCE736498968014391
:10280000344A91607047334989680143314A916085
:1028100070473049896881432E4A91607047F0B50E
:102820000646002400270025B6F5006F1DD005DC04
:1028300076B3102E09D0182E7BD169E0B6F5106F53
:1028400054D0B6F5506F74D132E004E01120FFF798
:10285000B5FF0546641C15B9B4F5006FF6D111201B
:10286000FFF7ACFF00B1012764E005E040F601008E
:10287000FFF7A4FF0546641C1DB96FF07C4084423D
:10288000F4D140F60100FFF799FF00B1012751E0B4
:1028900004E00120FFF792FF0546641C15B9B4F56A
:1028A000A06FF6D10120FFF789FF00B1012741E0B9
:1028B00005E040F60150FFF781FF0546641C15B99D
:1028C00009488442F5D140F60150FFF777FF00B187
:1028D00001272FE0001002400C00FF08FFFFC27725
:1028E000FFFFF2FEFFFFC2F7FFFF0F0005E040F61B
:1028F0000110FFF763FF0546641C15B9F8488442D0
:10290000F5D140F60110FFF759FF00B1012711E0A2
:1029100004E01920FFF752FF0546641C15B9F04882
:102920008442F6D11920FFF749FF00B1012701E0E9
:10293000FFE700BF00BF3846F0BDEA4A02EB901146
:10294000096800F01F0301229A401143E54B03EB95
:10295000901211607047E34A02EB9011096800F091
:102960001F0301229A409143DE4B03EB901211604A
:1029700070470146B1F5006F18D005DC09B3102986
:1029800009D0182921D11FE0B1F5106F1BD0B1F586
:10299000506F1AD116E0D34A1068126822F48032C0
:1029A000D04B1A6040F480221A600FE0CD4A106AC2
:1029B000126A22F00102CB4B1A6240F004021A6242
:1029C00004E000BF00BF00BF00E000BF00BF7047D1
:1029D0000146B1F5006F18D005DC09B3102909D004
:1029E000182921D11FE0B1F5106F1BD0B1F5506F40
:1029F0001AD116E0BB4A1068126822F48032B94B33
:102A00001A6020F480221A600FE0B64A106A126A37
:102A100022F00102B34B1A6220F004021A6204E0B1
:102A200000BF00BF00BF00E000BF00BF7047AD485F
:102A3000006840F40020AB4908607047A94800686E
:102A400020F40020A749086070470021A54A1168BA
:102A500021F0F80141EAC002A24B1A607047002140
:102A6000A04A516B21F0F80141EAC0029D4B5A6324
:102A700070479D48006800209A49C1F800019A48B3
:102A800000689A4908439749C1F800017047964980
:102A90003431096821F00701924AC2F83411114615
:102AA000D1F834110143C2F8341170478E493831DE
:102AB000096821F001018B4AC2F838111146D1F89A
:102AC00038110143C2F8381170472DE9F04F8FB02B
:102AD00004464FF0000CE04600200022002581460D
:102AE000CDF838900021CDF83490CDF83090CDF865
:102AF0002C900023CDF82890CDF82490CDF820908C
:102B0000002600270FF2E81999E8004CD9F80C903C
:102B1000CDE905BECDF810A0CDF81C900FF2D41A67
:102B2000DAE9009ACDE9029A0FF2C81ADAE9009AB6
:102B3000CDE9009ADFF8AC91D9F80490C9F3810C83
:102B4000BCF1000F06D0BCF1010F05D0BCF1020FA3
:102B50003FD103E06A4A3EE0694A3CE0DFF88491F5
:102B6000D9F80490C9F38343DFF87891D9F8049039
:102B7000C9F3C069CDF82890DDF82890B9F1000FAD
:102B800001D0113300E09B1CDFF85891D9F8049074
:102B9000C9F30049CDF82490DDF82490B9F1000F75
:102BA00012D0DFF84091D9F82C9009F00F0909F103
:102BB0000109CDF82090DFF848A1DDF82090BAFB9C
:102BC000F9F909FB03F203E0DFF8389103FB09F29E
:102BD00001E04B4A00BF00BFDFF80891D9F804902C
:102BE000C9F303160DF1100919F8067022FA07F55A
:102BF000DFF8F090D9F80490C9F302260DF1080926
:102C000019F8067025FA07F9CDF83890DFF8D49056
:102C1000D9F80490C9F3C2261DF8067025FA07F109
:102C2000072C5CD2DFE804F00406080A0C477200A7
:102C300010469FE028469DE00E989BE0084699E0EC
:102C4000DFF8A090D9F8309009F48079B9F5807F49
:102C500004D0DFF8B490CDF834902AE0DFF8849007
:102C6000D9F80490C9F38138B8F1000F09D0B8F150
:102C7000010F0BD0B8F1020F0DD0B8F1030F16D130
:102C800010E04FEA5109CDF8349011E04FEA910974
:102C9000CDF834900CE04FF00609B1FBF9F9CDF80E
:102CA000349005E04FEAD109CDF8349000E000BF40
:102CB00000BF0D985EE0DFF82C90D9F8309009F055
:102CC0004009B9F1400F04D048F21209CDF8309014
:102CD00003E04FF40049CDF830900C984AE048E00A
:102CE000FFFF0F0000100240001102404D3C2B1A64
:102CF00000000000000000000102030406070809AC
:102D000000127A0000093D00809FD500DFF86C902A
:102D1000D9F8309009F00309B9F1000F01D10B91F6
:102D200025E0DFF85890D9F8309009F00309B9F19F
:102D3000010F01D10B921AE0DFF84090D9F83090E2
:102D400009F00309B9F1020F04D14FF40049CDF89D
:102D50002C900CE0DFF82490D9F8309009F00309AA
:102D6000B9F1030F03D1DFF81890CDF82C900B9830
:102D700000E000BF00BF0FB0BDE8F08F00100240C0
:102D800000127A0010B50446FE49601A8C4217D032
:102D90000CDCB4F1804F1CD0FB48204410B3B0F5DC
:102DA000406F28D0B0F5E05F52D12DE0B0F5A05FC4
:102DB00033D0B0F5C05F39D0B0F5E05F48D13EE028
:102DC00040F20B30FFF7FAFB40F20B30FFF704FC48
:102DD0003FE04FF48060FFF7F1FB4FF48060FFF7B6
:102DE000FBFB36E040F20140FFF7E8FB40F2014018
:102DF000FFF7F2FB2DE040F20440FFF7DFFB40F26B
:102E00000440FFF7E9FB24E04FF48160FFF7D6FBB5
:102E10004FF48160FFF7E0FB1BE04FF44470FFF7D5
:102E2000CDFB4FF44470FFF7D7FB12E040F21130B6
:102E3000FFF7C4FB40F21130FFF7CEFB09E040F290
:102E40001230FFF7BBFB40F21230FFF7C5FB00E08A
:102E500000BF00BF10BD0A888262CA4A904206D0F5
:102E6000B0F1804F03D0C84A524290420CD1026860
:102E700022F01002026002684B881A430260026866
:102E80008B881A43026007E0026822F01002026099
:102E900002688B881A4302608A68C262BB4A904209
:102EA00007D0026822F44072026002688B891A43DC
:102EB0000260B44A904208D0B54A904205D0B54A63
:102EC000904202D0B44A904201D18A7B02634269A7
:102ED00042617047016841F001010160704701687B
:102EE00021F0010101607047016841F0800101603B
:102EF0007047016821F0800101607047016841F06E
:102F0000020101607047016821F002010160704711
:102F1000026822F06002026002680A4302607047A1
:102F2000016821F0100101600168016070470168CB
:102F300021F010010160016841F01001016070474B
:102F400081621AB9436943F0010343617047016329
:102F50007047C16270474162704701460020486A6D
:102F60007047014600208A6A90B2704721B9026812
:102F700042F00802026005E0012903D1026822F054
:102F800008020260704721B9026842F00402026040
:102F900005E0012903D1026822F0040202607047B3
:102FA000C2680A43C2607047C2688A43C260704701
:102FB00010B50246002300241069084083B2D0688F
:102FC000084084B213B10CB1012010BD0020FCE711
:102FD00002698A430261704702461069084080B264
:102FE00008B1012070470020FCE702698A430261B2
:102FF0007047C2680A43C2607047C2688A43C260B1
:10300000704721B9426842F00802426005E0012998
:1030100003D1426822F008024260704710B5836C09
:1030200041F61F74A3438364836C41EA0204234383
:10303000836410BD42690A43426170470A884B8825
:103040001A438B881A43CB881A430B891A434B893E
:103050001A438B891A4342647047416C41F4805192
:1030600041647047416C002141647047416C41F4F8
:10307000804141647047416C00214164704721B137
:10308000426C42F40042426403E0426C22F400428B
:103090004264704721B1426842F00102426003E09D
:1030A000426822F001024260704721B9426822F072
:1030B0000402426005E0012903D1426842F00402A3
:1030C0004260704710B531B1012941D002297DD04D
:1030D00003297CD1C0E0036A23F001030362036A81
:1030E000148823430362036A23F002030362036A22
:1030F000948823430362234B984208D0244B984280
:1031000005D0244B984202D0234B98421FD1036A2A
:1031100023F004030362036A548823430362036AAF
:1031200023F008030362036AD488234303624368DD
:1031300023F48073436043681489234343604368E6
:1031400023F4007343604368548923434360A3E03E
:10315000036A23F010030362036A148843EA04132A
:103160000362036A23F020030362036A948843EA3C
:1031700004130362034B984233D1036A23F04003E4
:1031800003620BE0002C014000FCFFBF0010004078
:10319000004001400044014000480140036A548857
:1031A00043EA04130362036A23F080030362036AA1
:1031B000D48843EA04130362436823F480634360C2
:1031C0004368148943EA8403436001E00AE062E053
:1031D000436823F4006343604368548943EA8403EB
:1031E000436059E0036A23F480730362036A14881E
:1031F00043EA04230362036A23F400730362036A4D
:10320000948843EA04230362FC4B984223D1036A67
:1032100023F480630362036A548843EA042303624D
:10322000036A23F400630362036AD48843EA042335
:103230000362436823F4805343604368148943EA7C
:1032400004134360436823F4005343604368548984
:1032500043EA041343601FE0036A23F480530362CC
:10326000036A148843EA04330362036A23F40053B5
:103270000362036A948843EA04330362DF4B984293
:1032800008D1436823F4804343604368148943EAC8
:103290008413436000E000BF00BF10BD31B10129BD
:1032A0000CD0022913D0032922D118E0836923F01E
:1032B000700383618369134383611AE0836923F494
:1032C000E0438361836943EA0223836111E0C369B8
:1032D00023F07003C361C3691343C36109E0C36989
:1032E00023F4E043C361C36943EA0223C36100E0FE
:1032F00000BF00BF704731B1012906D0022906D0B6
:10330000032908D105E0426306E0826304E0C2635A
:1033100002E0026400E000BF00BF704731B1012944
:103320000CD0022913D0032922D118E0836923F09D
:10333000080383618369134383611AE0836923F47B
:1033400000638361836943EA0223836111E0C369F7
:1033500023F00803C361C3691343C36109E0C36970
:1033600023F40063C361C36943EA0223C36100E03D
:1033700000BF00BF704731B101290CD0022913D022
:10338000032922D118E0836923F004038361836950
:10339000134383611AE0836923F480638361836943
:1033A00043EA0223836111E0C36923F00403C3618C
:1033B000C3691343C36109E0C36923F48063C36134
:1033C000C36943EA0223C36100E000BF00BF704746
:1033D00031B101290CD0022913D0032922D118E0E0
:1033E000836923F0800383618369134383611AE057
:1033F000836923F400438361836943EA0223836181
:1034000011E0C36923F08003C361C3691343C3613F
:1034100009E0C36923F40043C361C36943EA02239B
:10342000C36100E000BF00BF704731B101290CD07B
:10343000022913D0032923D119E0036A23F00203E0
:103440000362036A134303621BE0036A23F0200351
:103450000362036A43EA0213036212E0036A23F47D
:1034600000730362036A43EA0223036209E0036A0A
:1034700023F400530362036A43EA0233036200E069
:1034800000BF00BF704721B101290AD002291AD11B
:1034900010E0036A23F008030362036A1343036224
:1034A00012E0036A23F080030362036A43EA021313
:1034B000036209E0036A23F400630362036A43EAD8
:1034C0000223036200E000BF00BF7047012904D15E
:1034D000826842F00802826004E019B9826822F032
:1034E00008028260704731B101290CD0022913D043
:1034F000032923D119E0036A23F001030362036A5D
:10350000134303621BE0036A23F010030362036AA0
:1035100043EA0213036212E0036A23F48073036236
:10352000036A43EA0223036209E0036A23F4805337
:103530000362036A43EA0233036200E000BF00BF94
:10354000704721B101290AD002291AD110E0036A7B
:1035500023F004030362036A1343036212E0036A65
:1035600023F040030362036A43EA0213036209E0A3
:10357000036A23F480630362036A43EA022303625B
:1035800000E000BF00BF704731B101290CD0022913
:1035900013D0032922D118E0836923F00C0383613F
:1035A0008369134383611AE0836923F44063836171
:1035B000836943EA0223836111E0C36923F00C03AA
:1035C000C361C3691343C36109E0C36923F4406362
:1035D000C361C36943EA0223C36100E000BF00BFC7
:1035E000704770B504460E4615464EB1012E29D0DF
:1035F000022E4BD0032E7DD16BE00000002C014049
:10360000206A20F001002062206A20F00A00206277
:10361000206A298808432062A06920F00300A06185
:10362000A06969880843A061A06920F0F000A0614A
:10363000A069E98840EA0110A061206A40F0010019
:1036400020626DE0206A20F010002062206A20F0E5
:10365000A0002062206A298840EA01102062A06947
:1036600020F44070A061A069698840EA0120A0614F
:10367000A06920F47040A061A069E98840EA0130A7
:10368000A061206A40F01000206249E0206A20F426
:1036900080702062206A20F420602062206A2988DD
:1036A00040EA01202062E06920F00300E061E06967
:1036B00069880843E061E06920F0F000E061E069BA
:1036C000E98840EA0110E061206A40F480702062DD
:1036D00026E0206A20F480502062206A20F4005006
:1036E0002062206A298840EA01302062E06920F4E3
:1036F000407000E013E0E061E069698840EA012081
:10370000E061E06920F47040E061E069E98840EA46
:103710000130E061206A40F48050206200E000BF88
:1037200000BFAA8831462046FFF72EFF70BD024633
:10373000002031B1012906D0022906D0032908D181
:1037400005E0506B06E0906B04E0D06B02E0106C7B
:1037500000E000BF00BF70472DE9F04104460E466F
:1037600015460027B846288808B9022700E0002738
:103770006888012802D14FF0020801E04FF00108EB
:10378000002E4BD1206A20F001002062206A20F038
:103790000A002062206A298808432062A06920F07C
:1037A0000300A061A06969880843A061A06920F0B6
:1037B000F000A061A069E9880843A061206A40F098
:1037C00001002062AA8800212046FFF7DDFE206A62
:1037D00020F010002062206A20F0A0002062206A01
:1037E00040EA07102062A06920F44070A061A0693F
:1037F00040EA0820A061A06920F47040A061A0699F
:10380000E98840EA0120A061206A40F010002062AF
:10381000AA8801212046FFF7B7FE4BE0206A20F07E
:1038200010002062206A20F0A0002062206A29880F
:1038300040EA01102062A06920F44070A061A069F4
:10384000698840EA0120A061A06920F47040A0616D
:10385000A069E98840EA0120A061206A40F01000D8
:103860002062AA8801212046FFF78EFE206A20F000
:1038700001002062206A20F00A002062206A38439A
:103880002062A06920F00300A061A06940EA08005E
:10389000A061A06920F0F000A061A069E988084358
:1038A000A061206A40F001002062AA880021204621
:1038B000FFF76AFEBDE8F08121B9426842F080025C
:1038C000426005E0012903D1426822F08002426093
:1038D0007047826822F07002826082680A438260C8
:1038E0007047426822F07002426042680A434260B8
:1038F0007047826822F00702826082680A43826011
:10390000704721B9826842F08002826005E0012997
:1039100003D1826822F080028260704730B58468EB
:1039200024F43F448460846841EA02052C438460A7
:10393000846844EA0324846030BD30B5846824F090
:103940000704846084680C438460846940F2033512
:10395000AC438461846940F201152C438461046A9C
:1039600024F00A040462046A24F0A0040462046AD5
:1039700042EA03152C43046230BD81680021816056
:10398000704710B503460C4621461846FFF7A1FFC5
:10399000986820F007009860986840F007009860E9
:1039A00010BD70B504460E461546602E20D1206A23
:1039B00020F010002062206A20F0A0002062206A1F
:1039C00040EA05102062A06920F44070A061A0695F
:1039D00040F48070A061A06920F47040A061A069EB
:1039E00040EA0320A061206A40F0100020621DE040
:1039F000206A20F001002062206A20F00A00206284
:103A0000206A28432062A06920F00300A061A06919
:103A100040F00100A061A06920F0F000A061A06961
:103A20001843A061206A40F0010020623146204620
:103A3000FFF74FFFA06820F00700A060A06840F0EB
:103A40000700A06070BDF0B504460D4616461F463F
:103A50003B46324629462046FFF760FFA06820F02B
:103A60000700A060A06840F00700A060A06820F0F8
:103A70007000A060A06840F07000A060F0BDF0B5DC
:103A800004460D4616461F463B463246294620460A
:103A9000FFF744FFA06840F48040A060F0BD81685B
:103AA00021F480418160704701B9026570470000D0
:103AB00010B50446F848204458B1B0F5744F11D100
:103AC00040F20E30FEF77AFD40F20E30FEF784FD34
:103AD00009E040F21140FEF771FD40F21140FEF79F
:103AE0007BFD00E000BF00BF10BD2DE9F04704469C
:103AF0000D460027B846B9460026E748204438B1AD
:103B0000B0F5744F09D10620FEF7DFFF074605E048
:103B10000220FEF7DAFF074600E000BF00BF206882
:103B200000F4004070B1780000EB5500B0FBF5F6F2
:103B30004FF6F07006EA0008C6F3420948EA0900A9
:103B4000E0600CE007EB5500B0FBF5F64FF6F070C7
:103B500006EA000806F00F0948EA0900E060BDE83F
:103B6000F087026822F001020260026822F4C0625B
:103B7000026002680A4302607047026822F0010294
:103B80000260026822F48052026002680A43026006
:103B90007047026822F001020260426822F440523B
:103BA000426042680A4342607047016841F0010187
:103BB00001607047016821F00101016070470268EF
:103BC00022F00802026002680A430260704702683D
:103BD00022F00402026002680A4302607047C1F3E7
:103BE0000802826270470146486AC0F308007047C5
:103BF000026822F001020260426822F40022426060
:103C0000426801F400231A4342607047026822F0C0
:103C10000102026008292DD2DFE801F004091D0E1F
:103C200022132718426842F48022426023E042684F
:103C300022F4802242601EE0426822F40032426098
:103C400019E0426822F48032426014E0426822F4B3
:103C5000004242600FE0426842F4003242600AE0F3
:103C6000426842F48032426005E0426842F4004219
:103C7000426000E000BF00BF7047016821F0010111
:103C80000160816821F4805181607047016821F0F2
:103C900001010160816841F48051816070470268D0
:103CA00022F001020260026822F40042026002680F
:103CB0000A4302607047026822F0010202608268D3
:103CC00022F40062826082680A4382607047416821
:103CD00041F4801141607047416821F480114160D6
:103CE0007047426822F4C002426042680A43426060
:103CF0007047016841F4005101607047016821F488
:103D0000005101607047026822F0010202600268FF
:103D100022F40062026002680A430260704702688F
:103D200022F001020260426822F010024260426802
:103D300001F010031A4342607047026822F001024A
:103D40000260426822F07F42426042684FF07F4347
:103D500003EA01631A4342607047416841F400017D
:103D600041607047416821F4000141607047426939
:103D700002F07F42426142690A4342617047016832
:103D800021F001010160416841F4804141607047C8
:103D9000016821F001010160416821F48041416026
:103DA0007047026822F001020260426801F02003BD
:103DB0001A4342607047016821F001010160816887
:103DC00041F0080181607047016821F00101016044
:103DD000816821F0080181607047016821F00101CC
:103DE0000160416841F4006141607047016821F061
:103DF00001010160416821F400614160704730B504
:103E0000046824F001040460446824F4E06444601D
:103E1000446801F480752C434460446802F40075E2
:103E20002C434460446803F480652C43446030BDF7
:103E3000016821F001010160816841F02001816089
:103E40007047016821F001010160816821F02001C3
:103E500081607047016821F001010160816841F0D3
:103E6000100181607047016821F0010101608168E3
:103E700021F0100181607047026822F001020260A7
:103E8000026922F47F42026102694FF47F4303EA30
:103E900001231A430261704700BCFFBF426922F050
:103EA0007F42426142694FF07F4303EA01631A4354
:103EB00042617047026822F001020260826822F4C7
:103EC0006022826082684FF4602303EA41431A4310
:103ED00082607047016821F001010160816841F052
:103EE000020181607047016821F001010160816871
:103EF00021F0020181607047026822F00102026035
:103F0000826801F004031A4382607047026822F05D
:103F100001020260026922F0FF02026102690A43A3
:103F200002617047026822F001020260826822F496
:103F30008072826082680A4382607047026822F061
:103F400001020260826822F40072826082680A4381
:103F500082607047016821F001010160816841F4CD
:103F6000804181607047016821F001010160816832
:103F700021F4804181607047026822F001020260F2
:103F8000026822F07872026002684FF0787303EAE8
:103F900041531A4302607047026822F00102026036
:103FA000026822F4F812026002684FF4F81303EA80
:103FB00001431A4302607047026822F00102026066
:103FC000826822F400428260826801F400431A434E
:103FD00082607047826822F04002826082680A43F1
:103FE00082607047826822F08002826082680A43A1
:103FF00082607047016821F001010160816841F42D
:10400000005181607047016821F001010160816801
:1040100021F4005181607047016841F002010160A4
:104020007047016821F0020101607047026822F0C8
:1040300001020260826822F440128260826801F408
:1040400040131A438260704710B5024602EB91108C
:10405000006801F01F040123A340184008B10120AB
:1040600010BD0020FCE710B5026A01F01F04012317
:10407000A3401A43026210BD10B5C1F389128258E1
:1040800001F01F040123A3401A43C1F38913C25056
:1040900010BD10B5C1F38912825801F01F0401232D
:1040A000A3409A43C1F38913C25010BD82690A43E9
:1040B0008261704770B5024600230024C1F3891065
:1040C000105801F01F060125B54000EA050302EB78
:1040D00091500068C1F304460125B54000EA05048B
:1040E00014B10BB1012070BD0020FCE710B5026ACD
:1040F000C1F304440123A3401A43026210BD00002F
:104100000948804709480047FEE7FEE7FEE7FEE76B
:10411000FEE7FEE7FEE7FEE7FEE7FEE704480549A7
:10412000054A064B70470000B341000869010008CA
:10413000600100206009002060050020600500206B
:104140006D4840686C4948600846406848600846C9
:1041500040684860084640686849084066494860C9
:104160000846406866490843634948600846006855
:1041700040F08070086000BF5F48006800F0007089
:104180000028F9D05C48406820F003005A49486094
:104190000846406840F00200486000BF564840684A
:1041A00000F008000028F9D0704710B5FFF7C8FFED
:1041B00010BD10B55048006840F001004E4908603D
:1041C00000BF4D48006800F002000028F9D04A48BE
:1041D00040684C49084048494860084640684A4998
:1041E0000840454948600846406820F4400048605F
:1041F00008460068454908403F4908600846C06ACB
:1042000020F00F00C8620846006B40F2431188435B
:10421000394908630846406B20F0010048630020DC
:104220008860FFF7C2FF10BD2DE9FF430021002089
:10423000002200230024002500260FF2D409D9E92A
:1042400001C8D9F80070D9F80C90CDE901C8CDF8B3
:104250000C900097284F7F68C7F3810121B1012995
:1042600008D0022932D10BE02D4FDFF8B8C0CCF8CE
:10427000007031E02A4FDFF8ACC0CCF800702BE0C2
:104280001D4F7F68C7F383401B4F7F68C7F3C06231
:104290000AB1113000E0801C174F7F68C7F300435C
:1042A0006BB1154FFF6A07F00F077C1C1C4FB7FB63
:1042B000F4F74743DFF86CC0CCF8007005E01A4F04
:1042C0004743DFF860C0CCF8007005E0144FDFF81A
:1042D00054C0CCF8007000BF00BF074F7F68C7F321
:1042E00003151DF805600F4F3F68F740DFF834C035
:1042F000CCF80070BDE8FF8300100240FFFFC2F75A
:10430000000004080C00FF08FFFFC277FFFFF2FE69
:104310000000000000000000010203040607080975
:1043200000127A006800002000093D0010B5203A14
:10433000C0F00B80B1E81850203AA0E81850B1E85E
:104340001850A0E81850BFF4F5AF5FEA027C24BF14
:10435000B1E81850A0E8185044BF18C918C0BDE80B
:1043600010405FEA827C24BF51F8043B40F8043BD4
:1043700008BF7047D20728BF31F8023B48BF11F889
:10438000012B28BF20F8023B48BF00F8012B7047E3
:10439000704770477047754600F02CF8AE46050030
:1043A0006946534620F00700854618B020B5FFF750
:1043B000B5FEBDE820404FF000064FF000074FF07B
:1043C00000084FF0000B21F00701AC46ACE8C00933
:1043D000ACE8C009ACE8C009ACE8C0098D4670473C
:1043E00010B50446AFF300802046BDE81040FBF74F
:1043F00002BF00000048704700010020014918205A
:10440000ABBEFEE726000200704730B5039C0729CB
:1044100029D2DFE801F028040A10161C220000252A
:10442000156018604542256022E04542156018601D
:10443000002525601CE04542156000251D602060B8
:1044400016E00025156045421D60206010E01060F8
:1044500045421D60002525600AE0106000251D60B2
:104460004542256004E0002515601D60256000BF01
:1044700000BF30BD491058BFC1F140415B1058BF6B
:10448000C3F140438B42EFF30080704710F00042CD
:1044900048BF4042B0FA80F310FA03F10AD0C3F1EA
:1044A0001D0303F580634FEA415002EB035202EB18
:1044B000D12170474FF000007047000051EA030C13
:1044C00017D41CF5801F58BFBCF5801F00F1068073
:1044D000994218BF704708BF9042704707D711F53F
:1044E000801F58BF13F5801F19D499427047894225
:1044F00070471CF5801F08D5BCF5801FF7D58B428F
:1045000018BF704708BF824270474FF4001C1CEB75
:10451000410F38BF1CEB430F01D28B42704770B57F
:1045200000F008F8922449004FF000514FF08053FA
:10453000FFF7A0BF0EF1020E2EF0030E5EF8046B23
:10454000364205D4012A43EB030515F5001F12D8A6
:10455000012841EB010C1CF5001F0CD80ED14FEACD
:10456000D17C15F5001F0CEB4C0C0CF1020C08BFB4
:104570004CEBD37C04E04FF0080C01E04FEAD37C15
:104580000CEB4C0526FA05F606F00706B6F1040C0E
:1045900006D20EEB860CBDE870404CF0010C604773
:1045A000DFE80CF0090B02024FF000414FF0000071
:1045B000A1F5002170BD19461046012851EB0104F8
:1045C00018BFD4F5001484BF002001F0004170BD75
:1045D000CA0800001E020000A0A31100E80D03009D
:1045E0000003050401020600084600080000002040
:1045F0006C000000A4010008744600086C00002054
:10460000F4080000C00100080000000000000000E5
:104610000000409C000000000000000000000000BE
:10462000000000000000000000000000000000008A
:10463000000000000000000000000000D0070000A3
:10464000000000000000000000000000000000006A
:104650000000000000000000010000000000000059
:104660000000000000000000E8030000000000005F
:0446700000A24A0456
:040000050800016985
:00000001FF
